:03000000020003F8
:0C000300787FE4F6D8FD75811302004AF6
:0C01A9000A09C0F9A4B0999282F8809075
:0B01340074092FF8E6F5807F037E00C1
:10013F00EF1FAA0670011E4A600BE4FDEDC3947D0C
:05014F0050EE0D80F7E9
:010154002288
:0601C000000000DFFB223D
:10008F00E508D394FF50047F0180027F00E508D379
:10009F00948040047E0180027E00EE5F600CE508D4
:1000AF00F404F50875A0087580BF12013BE50875CB
:1000BF00F00A84AFF0E50875F00A8475F00A84AC95
:1000CF00F0E50875F06484FB75A00112013475A08A
:1000DF0002AF0412013475A004AF0374092FF8E6C0
:0900EF00F5807F037E0002013F51
:10019300E4F513C2A77F781201C0D2A77F10120122
:0601A300C07F500201C004
:10015500E4FD7E08C2A77F011201C0D2A7EDC3133B
:10016500FD30A7034305807F0B1201C0DEE6AF0516
:010175002267
:02017600AE07D2
:100178007D08C2A7EE1392A77F0C1201C0D2A7EE8A
:0A018800C313FE7F051201C0DDE87D
:01019200224A
:1000F8001201937FCC1201767F441201767F0A7E2B
:100108000012013F1201937FCC1201767FBE1201CB
:1001180076120155AC07120155EFFEAD04EDFFEE66
:0B012800C4F854F0C8EFC4540F48FFA7
:0101330022A9
:0A01B6001200F88F0812008F80F687
:10000F000201B6E493A3F8E493A34003F68001F250
:10001F0008DFF48029E493A3F85407240CC8C333F2
:10002F00C4540F4420C8834004F456800146F6DFC1
:10003F00E4800B01020408102040809001A9E47EA7
:10004F00019360BCA3FF543F30E509541FFEE493B6
:10005F00A360010ECF54C025E060A840B8E493A37D
:10006F00FAE493A3F8E493A3C8C582C8CAC583CAA8
:10007F00F0A3C8C582C8CAC583CADFE9DEE780BE60
:0101B5000049
:00000001FF
